:100000000A128A11FC2F00308A000408840A820731
:1000100000344B34653479347034613464340034E2
:100D5000F200720883120313880007148710071526
:100D60000D30F100FB30F000F00BB42EF10BB42E7F
:100D7000B92E8312031307110800F20072088312C0
:100D8000031388000710871007152130F100763013
:100D9000F000F00BC92EF10BC92E000083120313D3
:100DA0000711080038300A128A11BD260A128A116A
:100DB00006300A128A11BD260A128A110C300A1254
:100DC0008A11BD260A128A1101300A128A11BD2623
:100DD0000A128A110800F500F601FF2E7608750741
:100DE00084000A128A1103200A128A110A128A1137
:100DF000A8260A128A110130F4007408F607730855
:100E00007602031C042F052FEE2E0800F030831607
:100E100003138600870188010A128A11D2260A125A
:100E20008A1180300A128A11BD260A128A110730EF
:100E3000F7007708F30001300A128A11EB260A1234
:100E40008A11C0300A128A11BD260A128A110A12AA
:100E50008A1130270A128A11272F0A128A110028B4
:100E600083120313061486100611061E382F392F1D
:100E7000452F31300A128A11A8260A128A118312CC
:100E80000313061A442F452F3F2F861E482F492F44
:100E9000552F34300A128A11A8260A128A11831299
:100EA0000313861A542F552F4F2F061F582F592FD3
:100EB000652F37300A128A11A8260A128A11831266
:100EC0000313061B642F652F5F2F861F682F692F62
:100ED000752F2A300A128A11A8260A128A11831243
:100EE0000313861B742F752F6F2F0610861406119F
:100EF000061E7B2F7C2F882F32300A128A11A826DB
:100F00000A128A1183120313061A872F882F822F41
:100F1000861E8B2F8C2F982F35300A128A11A82607
:100F20000A128A1183120313861A972F982F922F71
:100F3000061F9B2F9C2FA82F38300A128A11A82633
:100F40000A128A1183120313061BA72FA82FA22FA0
:100F5000861FAB2FAC2FB82F30300A128A11A8266B
:100F60000A128A1183120313861BB72FB82FB22FD0
:100F7000061086100615061EBE2FBF2FCB2F33304E
:100F80000A128A11A8260A128A1183120313061A5A
:100F9000CA2FCB2FC52F861ECE2FCF2FDB2F36305B
:100FA0000A128A11A8260A128A1183120313861ABA
:100FB000DA2FDB2FD52F061FDE2FDF2FEB2F393057
:100FC0000A128A11A8260A128A1183120313061B19
:100FD000EA2FEB2FE52F861FEE2FEF2FFB2F23306D
:100FE0000A128A11A8260A128A1183120313861B79
:100FF000FA2FFB2FF52F080083010A128A11062F02
:08400000FF3FFF3FFF3FFF3FC0
:02400E00FF3F72
:00000001FF
