:100000000A128A11EC2F00308A000408840A820741
:10001000003445344E345434453452342034503452
:1000200041345334533457344F345234443400340D
:1000300055344E344C344F3443344B3445344434CB
:0200400000348A
:100B120030343034303430340034393434343834CE
:100B2200353400347E088A007F0882000A128A1156
:100B320093250A128A118000840A04087D0603198B
:100B42000034FF0A0319FE0A972DF200720883127D
:100B5200031388000714871007150730F1007D3052
:100B6200F000F00BB22DF10BB22D8312031307111B
:100B72000800F2007208831203138800071087101E
:100B820007150730F1007D30F000F00BC62DF10B98
:100B9200C62D831203130711080038300A128A1176
:100BA200BA250A128A110C300A128A11BA250A12BF
:100BB2008A1106300A128A11BA250A128A110130E4
:100BC2000A128A11BA250A128A110800F500F601E2
:100BD200F701FE2D7608750784000A128A11032098
:100BE2000A128A110A128A11A6250A128A110130E2
:100BF200F6070318F70A0030F70774087702031D97
:100C0200042E73087602031C072E082EEB2D080013
:100C1200F101F201222E7108203E84000008F0004A
:100C22007108253E8400000870060319192E1A2E39
:100C32001C2E00302C2E0130F1070318F20A00306E
:100C4200F2077108253E840083130008031D2A2E33
:100C52002B2E0C2E01300800831603138701880106
:100C6200F03086000A128A11CE250A128A118030CB
:100C72000A128A11BA250A128A110E30F3000030C4
:100C8200F40001300A128A11E7250A128A11C030D3
:100C92000A128A11BA250A128A110A128A1109261F
:100CA2000A128A11003A0319572E582E592E5F2E16
:100CB2000A128A1178260A128A114E2E0A128A11F3
:100CC200CE250A128A1180300A128A11BA250A1216
:100CD2008A110830F3000030F40010300A128A1131
:100CE200E7250A128A11742E0A128A110028831229
:100CF2000313061486100611061E802E812E9B2ECB
:100D020031300A128A11A6250A128A11831203139C
:100D1200061A8C2E8D2E872E3130F3007808203E55
:100D220084007308831380000130F8070318F90A5E
:100D32000030F907861E9E2E9F2EB92E34300A12DD
:100D42008A11A6250A128A1183120313861AAA2E61
:100D5200AB2EA52E3430F3007808203E84007308B1
:100D6200831380000130F8070318F90A0030F907ED
:100D7200061FBC2EBD2ED72E37300A128A11A62589
:100D82000A128A1183120313061BC82EC92EC32E00
:100D92003730F3007808203E840073088313800004
:100DA2000130F8070318F90A0030F907861FDA2E16
:100DB200DB2EF52E2A300A128A11A6250A128A1172
:100DC20083120313861BE62EE72EE12E2A30F30050
:100DD2007808203E84007308831380000130F807EE
:100DE2000318F90A0030F907061086140611061EC8
:100DF200FB2EFC2E162F32300A128A11A6250A1259
:100E02008A1183120313061A072F082F022F32307A
:100E1200F3007808203E84007308831380000130B9
:100E2200F8070318F90A0030F907861E192F1A2F3E
:100E3200342F35300A128A11A6250A128A1183121A
:100E42000313861A252F262F202F3530F30078081A
:100E5200203E84007308831380000130F8070318D2
:100E6200F90A0030F907061F372F382F522F383072
:100E72000A128A11A6250A128A1183120313061B6B
:100E8200432F442F3E2F3830F3007808203E840051
:100E92007308831380000130F8070318F90A003041
:100EA200F907861F552F562F702F30300A128A11DC
:100EB200A6250A128A1183120313861B612F622F41
:100EC2005C2F3030F3007808203E840073088313CF
:100ED20080000130F8070318F90A0030F9070610FC
:100EE20086100615061E762F772F912F33300A12A1
:100EF2008A11A6250A128A1183120313061A822F57
:100F0200832F7D2F3330F3007808203E840073084E
:100F1200831380000130F8070318F90A0030F9073B
:100F2200861E942F952FAF2F36300A128A11A625CE
:100F32000A128A1183120313861AA02FA12F9B2F44
:100F42003630F3007808203E840073088313800053
:100F52000130F8070318F90A0030F907061FB22F0B
:100F6200B32FCD2F39300A128A11A6250A128A11FF
:100F720083120313061BBE2FBF2FB92F3930F30084
:100F82007808203E84007308831380000130F8073C
:100F92000318F90A0030F907861FD02FD12FEB2F43
:100FA20023300A128A11A6250A128A118312031308
:100FB200861BDC2FDD2FD72F2330F3007808203E4D
:100FC20084007308831380000130F8070318F90ABC
:100FD2000030F907080083132A30FD000530FE00B7
:100FE2008930FF00203084000A128A1197250A12E4
:0E0FF2008A11F801F90183010A128A112D2ECD
:08400000FF3FFF3FFF3FFF3FC0
:02400E00FB3F76
:00000001FF
