:100000000A128A11EA2F00308A000408840A820743
:100010000034203445346E34743465347234203402
:10002000503461347334733477346F3472346434DD
:1000300000342034203420345434523459342034A1
:1000400041344734413449344E3400342034203470
:10005000203455344E344C344F3443344B344534CF
:100060004434003420342034203420345734653470
:100070006C3463346F346D34653400342034203490
:08008000203420342034003448
:1008DC003034303430343034003431343234333416
:1008EC00343400347E088A007F0882000A128A1190
:1008FC0078240A128A118000840A04087D060319E0
:10090C000034FF0A0319FE0A7C2CF20072088312D1
:10091C00031388000714871007150730F1007D308A
:10092C00F000F00B972CF10B972C8312031307118B
:10093C000800F20072088312031388000710871056
:10094C0007150730F1007D30F000F00BAB2CF10BEC
:10095C00AB2C831203130711080038300A128A11CA
:10096C009F240A128A110C300A128A119F240A122F
:10097C008A1106300A128A119F240A128A11013038
:10098C000A128A119F240A128A110800F700F50135
:10099C00F601E32C7508770784000A128A110320EC
:1009AC000A128A110A128A118B240A128A11013036
:1009BC00F5070318F60A0030F60774087602031DD3
:1009CC00E92C73087502031CEC2CED2CD02C0800C0
:1009DC00F400F501F601F501F601FA2C0130F507EA
:1009EC000318F60A0030F60775087407F20072084F
:1009FC0084007608803AF30080307302031D092DC1
:100A0C00831300087502031C0C2D0D2DF42C760895
:100A1C00F1007508F000080083120313AC01AD015E
:100A2C000A128A1172250A128A11FC01FD012C2D61
:100A3C003030FB007C08203E84007B088313800050
:100A4C000130FC070318FD0A0030FD077D08803AD1
:100A5C00FB00831203132B08803A7B02031D382DF5
:100A6C002A087C02031C3B2D3C2D1E2D08008312F2
:100A7C0003132C082D04031D442D452D472D003048
:100A8C00712DF101F201602D7108253E8400831354
:100A9C000008F0007108203E84000008700603195D
:100AAC00582D592D5A2D452D0130F1070318F20AF6
:100ABC000030F2077208803AF000831203132B08FF
:100ACC00803A7002031D6C2D2A087102031C6F2DD5
:100ADC00702D4A2D013008000A128A11B3240A1213
:100AEC008A1180300A128A119F240A128A110B3043
:100AFC00F3000030F4002A300A128A11CC240A12B6
:100B0C008A113330FA00BB30F900DF30F800F80BF3
:100B1C008D2DF90B8D2DFA0B8D2D942D0A128A111A
:100B2C00B3240A128A1180300A128A119F240A12E5
:100B3C008A110F30F3000030F40001300A128A11D0
:100B4C00CC240A128A11C0300A128A119F240A126C
:100B5C008A110530F3000030F40036300A128A1185
:100B6C00CC240A128A1108000A128A11B3240A1220
:100B7C008A1180300A128A119F240A128A110C30B1
:100B8C00F3000030F40011300A128A11CC240A123E
:100B9C008A113330FA00BB30F900DF30F800F80B63
:100BAC00D52DF90BD52DFA0BD52DDC2D0A128A116A
:100BBC00B3240A128A1180300A128A119F240A1255
:100BCC008A110F30F3000030F40001300A128A1140
:100BDC00CC240A128A11C0300A128A119F240A12DC
:100BEC008A110530F3000030F40036300A128A11F5
:100BFC00CC240A128A110800831603138501F030E5
:100C0C008600870188010A128A1172250A128A113C
:100C1C0025300A128A11EE240A128A1171088312E5
:100C2C000313AB007008AA000A128A113D250A12A0
:100C3C008A11003A0319232E242E542E0A128A11DB
:100C4C00B3240A128A1180300A128A119F240A12C4
:100C5C008A110B30F3000030F4001E300A128A1196
:100C6C00CC240A128A11FF3083120313850033300F
:100C7C0083120313B000BB30AF00DF30AE00AE0BFD
:100C8C00452EAF0B452EB00B452E83120313850159
:100C9C000A128A1112250A128A111A2E0A128A11A4
:100CAC0076260A128A11831203132B08803AAE009F
:100CBC002D08803A2E02031D652E2C082A020318DB
:100CCC00682E692E1A2E83120313AC01AD010A1281
:100CDC008A11BA250A128A111A2E0A128A110028B0
:100CEC0083120313061486100611061E7E2E7F2E09
:100CFC00992E31300A128A118B240A128A1183120E
:100D0C000313061A8A2E8B2E852E3130F3002C08F5
:100D1C00203E84007308831380000130AC07031855
:100D2C00AD0A0030AD07861E9C2E9D2EB72E34309A
:100D3C000A128A118B240A128A1183120313861A3F
:100D4C00A82EA92EA32E3430F3002C08203E8400AC
:100D5C007308831380000130AC070318AD0A003010
:100D6C00AD07061FBA2EBB2ED52E37300A128A11AC
:100D7C008B240A128A1183120313061BC62EC72E4C
:100D8C00C12E3730F3002C08203E840073088313E7
:100D9C0080000130AC070318AD0A0030AD07861F88
:100DAC00D82ED92EF32E2A300A128A118B240A122D
:100DBC008A1183120313861BE42EE52EDF2E2A30B4
:100DCC00F3002C08203E840073088313800001304C
:100DDC00AC070318AD0A0030AD07061086140611D7
:100DEC00061EF92EFA2E142F32300A128A118B2479
:100DFC000A128A1183120313061A052F062F002FCD
:100E0C003230F3002C08203E8400730883138000DA
:100E1C000130AC070318AD0A0030AD07861E172F42
:100E2C00182F322F35300A128A118B240A128A118C
:100E3C0083120313861A232F242F1E2F3530F30011
:100E4C002C08203E84007308831380000130AC070B
:100E5C000318AD0A0030AD07061F352F362F502F63
:100E6C0038300A128A118B240A128A118312031346
:100E7C00061B412F422F3C2F3830F3002C08203E0C
:100E8C0084007308831380000130AC070318AD0A8B
:100E9C000030AD07861F532F542F6E2F30300A129F
:100EAC008A118B240A128A1183120313861B5F2F5B
:100EBC00602F5A2F3030F3002C08203E840073082A
:100ECC00831380000130AC070318AD0A0030AD0766
:100EDC00061086100615061E742F752F8F2F3330B3
:100EEC000A128A118B240A128A1183120313061A0E
:100EFC00802F812F7B2F3330F3002C08203E840071
:100F0C007308831380000130AC070318AD0A00305E
:100F1C00AD07861E922F932FAD2F36300A128A11F1
:100F2C008B240A128A1183120313861A9E2F9F2F69
:100F3C00992F3630F3002C08203E8400730883135D
:100F4C0080000130AC070318AD0A0030AD07061F56
:100F5C00B02FB12FCB2F39300A128A118B240A12E1
:100F6C008A1183120313061BBC2FBD2FB72F3930E8
:100F7C00F3002C08203E840073088313800001309A
:100F8C00AC070318AD0A0030AD07861FCE2FCF2F4C
:100F9C00E92F23300A128A118B240A128A11831228
:100FAC000313861BDA2FDB2FD52F2330F3002C08ED
:100FBC00203E84007308831380000130AC070318B3
:100FCC00AD0A0030AD07080083132A30FD00043051
:100FDC00FE006E30FF00203084000A128A117C243F
:100FEC000A128A11AA01AB01AC01AD0183010A12EC
:040FFC008A11022E26
:08400000FF3FFF3FFF3FFF3FC0
:02400E00FB3F76
:00000001FF
