:100000000A128A11EA2F00308A000408840A820743
:100010000034203445346E34743465347234203402
:10002000503461347334733477346F3472346434DD
:1000300000342034203420345434523459342034A1
:1000400041344734413449344E3400342034203470
:10005000203455344E344C344F3443344B344534CF
:100060004434003420342034203420345734653470
:100070006C3463346F346D34653400342034203490
:08008000203420342034003448
:1008EC003034303430343034003431343234333406
:1008FC00343400347E088A007F0882000A128A1180
:10090C0080240A128A118000840A04087D060319C7
:10091C000034FF0A0319FE0A842CF20072088312B9
:10092C00031388000714871007150730F1007D307A
:10093C00F000F00B9F2CF10B9F2C8312031307116B
:10094C000800F20072088312031388000710871046
:10095C0007150730F1007D30F000F00BB32CF10BD4
:10096C00B32C831203130711080038300A128A11B2
:10097C00A7240A128A110C300A128A11A7240A120F
:10098C008A1106300A128A11A7240A128A11013020
:10099C000A128A11A7240A128A110800F700F5011D
:1009AC00F601EB2C7508770784000A128A110320D4
:1009BC000A128A110A128A1193240A128A1101301E
:1009CC00F5070318F60A0030F60774087602031DC3
:1009DC00F12C73087502031CF42CF52CD82C080090
:1009EC00F400F501F601F501F601022D0130F507D1
:1009FC000318F60A0030F60775087407F20072083F
:100A0C0084007608803AF30080307302031D112DA8
:100A1C00831300087502031C142D152DFC2C76086D
:100A2C00F1007508F000080083120313AC01AD014E
:100A3C000A128A117A250A128A11FC01FD01342D41
:100A4C003030FB007C08203E84007B088313800040
:100A5C000130FC070318FD0A0030FD077D08803AC1
:100A6C00FB00831203132B08803A7B02031D402DDD
:100A7C002A087C02031C432D442D262D08008312CA
:100A8C0003132C082D04031D4C2D4D2D4F2D003020
:100A9C00792DF101F201682D7108253E8400831334
:100AAC000008F0007108203E84000008700603194D
:100ABC00602D612D622D4D2D0130F1070318F20AC6
:100ACC000030F2077208803AF000831203132B08EF
:100ADC00803A7002031D742D2A087102031C772DB5
:100AEC00782D522D013008000A128A11BB240A12EB
:100AFC008A1180300A128A11A7240A128A110B302B
:100B0C00F3000030F4002A300A128A11D4240A129D
:100B1C008A113330FA00BB30F900DF30F800F80BE3
:100B2C00952DF90B952DFA0B952D9C2D0A128A11EA
:100B3C00BB240A128A1180300A128A11A7240A12C5
:100B4C008A110F30F3000030F40001300A128A11C0
:100B5C00D4240A128A11C0300A128A11A7240A124C
:100B6C008A110530F3000030F40036300A128A1175
:100B7C00D4240A128A1108000A128A11BB240A1200
:100B8C008A1180300A128A11A7240A128A110C3099
:100B9C00F3000030F40011300A128A11D4240A1226
:100BAC008A113330FA00BB30F900DF30F800F80B53
:100BBC00DD2DF90BDD2DFA0BDD2DE42D0A128A113A
:100BCC00BB240A128A1180300A128A11A7240A1235
:100BDC008A110F30F3000030F40001300A128A1130
:100BEC00D4240A128A11C0300A128A11A7240A12BC
:100BFC008A110530F3000030F40036300A128A11E5
:100C0C00D4240A128A110800831603138701880161
:100C1C00F03086000A128A117A250A128A112530C0
:100C2C000A128A11F6240A128A117108831203130C
:100C3C00AB007008AA000A128A1145250A128A1103
:100C4C00003A03192A2E2B2E542E0A128A11BB2479
:100C5C000A128A1180300A128A11A7240A128A11E8
:100C6C000B30F3000030F4001E300A128A11D42429
:100C7C000A128A11333083120313B000BB30AF0059
:100C8C00DF30AE00AE0B482EAF0B482EB00B482E0B
:100C9C000A128A111A250A128A11212E0A128A1195
:100CAC0076260A128A11831203132B08803AAE009F
:100CBC002D08803A2E02031D652E2C082A020318DB
:100CCC00682E692E212E83120313AC01AD010A127A
:100CDC008A11C2250A128A11212E0A128A110028A1
:100CEC0083120313061486100611061E7E2E7F2E09
:100CFC00992E31300A128A1193240A128A11831206
:100D0C000313061A8A2E8B2E852E3130F3002C08F5
:100D1C00203E84007308831380000130AC07031855
:100D2C00AD0A0030AD07861E9C2E9D2EB72E34309A
:100D3C000A128A1193240A128A1183120313861A37
:100D4C00A82EA92EA32E3430F3002C08203E8400AC
:100D5C007308831380000130AC070318AD0A003010
:100D6C00AD07061FBA2EBB2ED52E37300A128A11AC
:100D7C0093240A128A1183120313061BC62EC72E44
:100D8C00C12E3730F3002C08203E840073088313E7
:100D9C0080000130AC070318AD0A0030AD07861F88
:100DAC00D82ED92EF32E2A300A128A1193240A1225
:100DBC008A1183120313861BE42EE52EDF2E2A30B4
:100DCC00F3002C08203E840073088313800001304C
:100DDC00AC070318AD0A0030AD07061086140611D7
:100DEC00061EF92EFA2E142F32300A128A11932471
:100DFC000A128A1183120313061A052F062F002FCD
:100E0C003230F3002C08203E8400730883138000DA
:100E1C000130AC070318AD0A0030AD07861E172F42
:100E2C00182F322F35300A128A1193240A128A1184
:100E3C0083120313861A232F242F1E2F3530F30011
:100E4C002C08203E84007308831380000130AC070B
:100E5C000318AD0A0030AD07061F352F362F502F63
:100E6C0038300A128A1193240A128A11831203133E
:100E7C00061B412F422F3C2F3830F3002C08203E0C
:100E8C0084007308831380000130AC070318AD0A8B
:100E9C000030AD07861F532F542F6E2F30300A129F
:100EAC008A1193240A128A1183120313861B5F2F53
:100EBC00602F5A2F3030F3002C08203E840073082A
:100ECC00831380000130AC070318AD0A0030AD0766
:100EDC00061086100615061E742F752F8F2F3330B3
:100EEC000A128A1193240A128A1183120313061A06
:100EFC00802F812F7B2F3330F3002C08203E840071
:100F0C007308831380000130AC070318AD0A00305E
:100F1C00AD07861E922F932FAD2F36300A128A11F1
:100F2C0093240A128A1183120313861A9E2F9F2F61
:100F3C00992F3630F3002C08203E8400730883135D
:100F4C0080000130AC070318AD0A0030AD07061F56
:100F5C00B02FB12FCB2F39300A128A1193240A12D9
:100F6C008A1183120313061BBC2FBD2FB72F3930E8
:100F7C00F3002C08203E840073088313800001309A
:100F8C00AC070318AD0A0030AD07861FCE2FCF2F4C
:100F9C00E92F23300A128A1193240A128A11831220
:100FAC000313861BDA2FDB2FD52F2330F3002C08ED
:100FBC00203E84007308831380000130AC070318B3
:100FCC00AD0A0030AD07080083132A30FD00043051
:100FDC00FE007630FF00203084000A128A1184242F
:100FEC000A128A11AA01AB01AC01AD0183010A12EC
:040FFC008A110A2E1E
:08400000FF3FFF3FFF3FFF3FC0
:02400E00FB3F76
:00000001FF
